{
  "contractName": "Land",
  "abi": [
    {
      "inputs": [
        {
          "internalType": "string",
          "name": "_description",
          "type": "string"
        }
      ],
      "name": "register",
      "outputs": [],
      "stateMutability": "nonpayable",
      "type": "function"
    },
    {
      "inputs": [
        {
          "internalType": "uint256",
          "name": "_id",
          "type": "uint256"
        },
        {
          "internalType": "bytes32",
          "name": "_document",
          "type": "bytes32"
        },
        {
          "internalType": "bytes32",
          "name": "_base64",
          "type": "bytes32"
        }
      ],
      "name": "registerDocument",
      "outputs": [],
      "stateMutability": "nonpayable",
      "type": "function"
    },
    {
      "inputs": [
        {
          "internalType": "uint256",
          "name": "_id",
          "type": "uint256"
        },
        {
          "internalType": "string",
          "name": "_description",
          "type": "string"
        },
        {
          "internalType": "address",
          "name": "_contractAddress",
          "type": "address"
        }
      ],
      "name": "divide",
      "outputs": [],
      "stateMutability": "nonpayable",
      "type": "function"
    },
    {
      "inputs": [
        {
          "internalType": "uint256",
          "name": "_id",
          "type": "uint256"
        }
      ],
      "name": "getById",
      "outputs": [
        {
          "components": [
            {
              "internalType": "string",
              "name": "description",
              "type": "string"
            },
            {
              "internalType": "bytes32[]",
              "name": "documents",
              "type": "bytes32[]"
            },
            {
              "internalType": "bytes32[]",
              "name": "hashes",
              "type": "bytes32[]"
            },
            {
              "internalType": "bool",
              "name": "divided",
              "type": "bool"
            }
          ],
          "internalType": "struct Land.Data",
          "name": "",
          "type": "tuple"
        }
      ],
      "stateMutability": "view",
      "type": "function",
      "constant": true
    },
    {
      "inputs": [
        {
          "internalType": "address",
          "name": "_address",
          "type": "address"
        }
      ],
      "name": "getByOwner",
      "outputs": [
        {
          "internalType": "uint256[]",
          "name": "",
          "type": "uint256[]"
        }
      ],
      "stateMutability": "view",
      "type": "function",
      "constant": true
    },
    {
      "inputs": [
        {
          "internalType": "uint256",
          "name": "_id",
          "type": "uint256"
        }
      ],
      "name": "getOwnerByLand",
      "outputs": [
        {
          "internalType": "address",
          "name": "",
          "type": "address"
        }
      ],
      "stateMutability": "view",
      "type": "function",
      "constant": true
    },
    {
      "inputs": [],
      "name": "getTotal",
      "outputs": [
        {
          "internalType": "uint256",
          "name": "",
          "type": "uint256"
        }
      ],
      "stateMutability": "view",
      "type": "function",
      "constant": true
    }
  ],
  "bytecode": "0x608060405234801561001057600080fd5b50610fed806100206000396000f3fe608060405234801561001057600080fd5b506004361061007d5760003560e01c806385fa82c21161005b57806385fa82c2146100ec57806395a93d6b14610108578063f2c298be14610138578063f4f4d237146101545761007d565b8063379c5131146100825780635f0e464f146100b2578063775a25e3146100ce575b600080fd5b61009c6004803603810190610097919061090f565b610184565b6040516100a99190610d19565b60405180910390f35b6100cc60048036038101906100c791906109f5565b61021b565b005b6100d66103c6565b6040516100e39190610d9d565b60405180910390f35b610106600480360381019061010191906109a6565b6103d0565b005b610122600480360381019061011d919061097d565b6104f0565b60405161012f9190610cfe565b60405180910390f35b610152600480360381019061014d9190610938565b61052d565b005b61016e6004803603810190610169919061097d565b610626565b60405161017b9190610d7b565b60405180910390f35b6060600160008373ffffffffffffffffffffffffffffffffffffffff1673ffffffffffffffffffffffffffffffffffffffff16815260200190815260200160002080548060200260200160405190810160405280929190818152602001828054801561020f57602002820191906000526020600020905b8154815260200190600101908083116101fb575b50505050509050919050565b833373ffffffffffffffffffffffffffffffffffffffff166002600083815260200190815260200160002060009054906101000a900473ffffffffffffffffffffffffffffffffffffffff1673ffffffffffffffffffffffffffffffffffffffff16146102bd576040517f08c379a00000000000000000000000000000000000000000000000000000000081526004016102b490610d5b565b60405180910390fd5b60008086815260200190815260200160002060030160009054906101000a900460ff1615610320576040517f08c379a000000000000000000000000000000000000000000000000000000000815260040161031790610d3b565b60405180910390fd5b8173ffffffffffffffffffffffffffffffffffffffff1663601219b7868686336040518563ffffffff1660e01b815260040161035f9493929190610db8565b600060405180830381600087803b15801561037957600080fd5b505af115801561038d573d6000803e3d6000fd5b50505050600160008087815260200190815260200160002060030160006101000a81548160ff0219169083151502179055505050505050565b6000600354905090565b823373ffffffffffffffffffffffffffffffffffffffff166002600083815260200190815260200160002060009054906101000a900473ffffffffffffffffffffffffffffffffffffffff1673ffffffffffffffffffffffffffffffffffffffff1614610472576040517f08c379a000000000000000000000000000000000000000000000000000000000815260040161046990610d5b565b60405180910390fd5b60008085815260200190815260200160002060010183908060018154018082558091505060019003906000526020600020016000909190919091505560008085815260200190815260200160002060020182908060018154018082558091505060019003906000526020600020016000909190919091505550505050565b60006002600083815260200190815260200160002060009054906101000a900473ffffffffffffffffffffffffffffffffffffffff169050919050565b600160003373ffffffffffffffffffffffffffffffffffffffff1673ffffffffffffffffffffffffffffffffffffffff16815260200190815260200160002060035490806001815401808255809150506001900390600052602060002001600090919091909150553360026000600354815260200190815260200160002060006101000a81548173ffffffffffffffffffffffffffffffffffffffff021916908373ffffffffffffffffffffffffffffffffffffffff16021790555081816000806003548152602001908152602001600020600001919061060f9291906107bf565b506003600081548092919060010191905055505050565b61062e61083f565b600080838152602001908152602001600020604051806080016040529081600082018054600181600116156101000203166002900480601f0160208091040260200160405190810160405280929190818152602001828054600181600116156101000203166002900480156106e45780601f106106b9576101008083540402835291602001916106e4565b820191906000526020600020905b8154815290600101906020018083116106c757829003601f168201915b505050505081526020016001820180548060200260200160405190810160405280929190818152602001828054801561073c57602002820191906000526020600020905b815481526020019060010190808311610728575b505050505081526020016002820180548060200260200160405190810160405280929190818152602001828054801561079457602002820191906000526020600020905b815481526020019060010190808311610780575b505050505081526020016003820160009054906101000a900460ff1615151515815250509050919050565b828054600181600116156101000203166002900490600052602060002090601f016020900481019282601f1061080057803560ff191683800117855561082e565b8280016001018555821561082e579182015b8281111561082d578235825591602001919060010190610812565b5b50905061083b9190610869565b5090565b60405180608001604052806060815260200160608152602001606081526020016000151581525090565b5b8082111561088257600081600090555060010161086a565b5090565b60008135905061089581610f72565b92915050565b6000813590506108aa81610f89565b92915050565b60008083601f8401126108c257600080fd5b8235905067ffffffffffffffff8111156108db57600080fd5b6020830191508360018202830111156108f357600080fd5b9250929050565b60008135905061090981610fa0565b92915050565b60006020828403121561092157600080fd5b600061092f84828501610886565b91505092915050565b6000806020838503121561094b57600080fd5b600083013567ffffffffffffffff81111561096557600080fd5b610971858286016108b0565b92509250509250929050565b60006020828403121561098f57600080fd5b600061099d848285016108fa565b91505092915050565b6000806000606084860312156109bb57600080fd5b60006109c9868287016108fa565b93505060206109da8682870161089b565b92505060406109eb8682870161089b565b9150509250925092565b60008060008060608587031215610a0b57600080fd5b6000610a19878288016108fa565b945050602085013567ffffffffffffffff811115610a3657600080fd5b610a42878288016108b0565b93509350506040610a5587828801610886565b91505092959194509250565b6000610a6d8383610b7a565b60208301905092915050565b6000610a858383610ce0565b60208301905092915050565b610a9a81610ee9565b82525050565b610aa981610e97565b82525050565b6000610aba82610e18565b610ac48185610e53565b9350610acf83610df8565b8060005b83811015610b00578151610ae78882610a61565b9750610af283610e39565b925050600181019050610ad3565b5085935050505092915050565b6000610b1882610e23565b610b228185610e64565b9350610b2d83610e08565b8060005b83811015610b5e578151610b458882610a79565b9750610b5083610e46565b925050600181019050610b31565b5085935050505092915050565b610b7481610ea9565b82525050565b610b8381610eb5565b82525050565b6000610b958385610e86565b9350610ba2838584610f1f565b610bab83610f61565b840190509392505050565b6000610bc182610e2e565b610bcb8185610e75565b9350610bdb818560208601610f2e565b610be481610f61565b840191505092915050565b6000610bfc601e83610e86565b91507f4c616e642063616e6e6f742062652064697669646564206675727468657200006000830152602082019050919050565b6000610c3c601583610e86565b91507f4f6e6c79206f776e657220697320616c6c6f77656400000000000000000000006000830152602082019050919050565b60006080830160008301518482036000860152610c8c8282610bb6565b91505060208301518482036020860152610ca68282610aaf565b91505060408301518482036040860152610cc08282610aaf565b9150506060830151610cd56060860182610b6b565b508091505092915050565b610ce981610edf565b82525050565b610cf881610edf565b82525050565b6000602082019050610d136000830184610aa0565b92915050565b60006020820190508181036000830152610d338184610b0d565b905092915050565b60006020820190508181036000830152610d5481610bef565b9050919050565b60006020820190508181036000830152610d7481610c2f565b9050919050565b60006020820190508181036000830152610d958184610c6f565b905092915050565b6000602082019050610db26000830184610cef565b92915050565b6000606082019050610dcd6000830187610cef565b8181036020830152610de0818587610b89565b9050610def6040830184610a91565b95945050505050565b6000819050602082019050919050565b6000819050602082019050919050565b600081519050919050565b600081519050919050565b600081519050919050565b6000602082019050919050565b6000602082019050919050565b600082825260208201905092915050565b600082825260208201905092915050565b600082825260208201905092915050565b600082825260208201905092915050565b6000610ea282610ebf565b9050919050565b60008115159050919050565b6000819050919050565b600073ffffffffffffffffffffffffffffffffffffffff82169050919050565b6000819050919050565b6000610ef482610efb565b9050919050565b6000610f0682610f0d565b9050919050565b6000610f1882610ebf565b9050919050565b82818337600083830152505050565b60005b83811015610f4c578082015181840152602081019050610f31565b83811115610f5b576000848401525b50505050565b6000601f19601f8301169050919050565b610f7b81610e97565b8114610f8657600080fd5b50565b610f9281610eb5565b8114610f9d57600080fd5b50565b610fa981610edf565b8114610fb457600080fd5b5056fea264697066735822122016c87580e96594e2b46b47f639869dd1817ab67a1ad6ca1feb9a28b213f4d76e64736f6c634300060c0033",
  "immutableReferences": {},
  "source": "// SPDX-License-Identifier: MIT\n\npragma solidity ^0.6.0;\npragma experimental ABIEncoderV2;\n\n//import '../../OpenZeppelin/openzeppelin-contracts/contracts/math/SafeMath.sol';\nimport '@openzeppelin/contracts/math/SafeMath.sol';\n\nimport './Portion.sol';\n\n/// @title This contract represents a land/agricultural resource\ncontract Land {\n    \n    using SafeMath for uint256;\n    \n    /// @dev Land data\n    struct Data {\n        string description;\n        bytes32[] documents;\n        bytes32[] hashes;\n        bool divided;\n    }\n    \n    /// @dev All the lands\n    mapping (uint256 => Data) private lands;\n    /// @dev Land indices grouped by owners\n    mapping (address => uint256[]) private landsByOwner;\n    /// @dev Owners grouped by land IDs\n    mapping (uint256 => address) private ownersByLandId;\n    \n    /// @dev Lands counter\n    uint256 private lastLandId;\n    \n    /// @dev Only owner can perform operation in his land\n    modifier onlyOwner(uint256 _landId) {\n        require(ownersByLandId[_landId] == msg.sender, 'Only owner is allowed');\n        _;\n    }\n    \n    /// @param _description Land description\n    function register(string calldata _description) external {\n        landsByOwner[msg.sender].push(lastLandId);\n        ownersByLandId[lastLandId] = msg.sender;\n        \n        lands[lastLandId].description = _description;\n        \n        lastLandId++;\n    }\n\n    /// @param _id Land ID\n    /// @param _document Document name\n    /// @param _base64 Base64 document\n    function registerDocument(uint256 _id, bytes32 _document, bytes32 _base64) external onlyOwner(_id) {\n        lands[_id].documents.push(_document);\n        lands[_id].hashes.push(_base64);\n    }\n    \n    /// @dev Only owner can divide a land in portion. This method calls the Portion instance for registering a new portion starting from input data.\n    /// @param _id Land ID to divide\n    /// @param _description Portion description\n    /// @param _contractAddress Address of Portion contract    \n    function divide(uint256 _id, string calldata _description, address _contractAddress) external onlyOwner(_id) {\n        if (lands[_id].divided) revert('Land cannot be divided further');\n        Portion(_contractAddress).register(_id, _description, msg.sender);\n        lands[_id].divided = true;\n    }\n    \n    /// @param _id Land ID\n    /// @return the data of the land\n    function getById(uint256 _id) external view returns (Data memory) {\n        return lands[_id];\n    }\n    \n    /// @param _address Owner's address\n    /// @return the array containing ID of lands owned\n    function getByOwner(address _address) external view returns (uint256[] memory) {\n        return landsByOwner[_address];\n    }\n    \n    /// @param _id Land ID\n    /// @return the address of the owner\n    function getOwnerByLand(uint256 _id) external view returns (address) {\n        return ownersByLandId[_id];\n    }\n    \n    /// @return the total number of lands\n    function getTotal() external view returns (uint256) {\n        return lastLandId;\n    }\n}\n",
  "sourcePath": "/home/francesca/WebstormProjects/PSAB-Contracts/contracts/Land.sol",
  "compiler": {
    "name": "solc",
    "version": "0.6.12+commit.27d51765.Emscripten.clang"
  },
  "schemaVersion": "3.2.5",
  "updatedAt": "2020-10-24T23:36:09.204Z",
  "networkType": "ethereum",
  "devdoc": {
    "kind": "dev",
    "methods": {
      "divide(uint256,string,address)": {
        "details": "Only owner can divide a land in portion. This method calls the Portion instance for registering a new portion starting from input data.",
        "params": {
          "_contractAddress": "Address of Portion contract    ",
          "_description": "Portion description",
          "_id": "Land ID to divide"
        }
      },
      "getById(uint256)": {
        "params": {
          "_id": "Land ID"
        },
        "returns": {
          "_0": "the data of the land"
        }
      },
      "getByOwner(address)": {
        "params": {
          "_address": "Owner's address"
        },
        "returns": {
          "_0": "the array containing ID of lands owned"
        }
      },
      "getOwnerByLand(uint256)": {
        "params": {
          "_id": "Land ID"
        },
        "returns": {
          "_0": "the address of the owner"
        }
      },
      "getTotal()": {
        "returns": {
          "_0": "the total number of lands"
        }
      },
      "register(string)": {
        "params": {
          "_description": "Land description"
        }
      },
      "registerDocument(uint256,bytes32,bytes32)": {
        "params": {
          "_base64": "Base64 document",
          "_document": "Document name",
          "_id": "Land ID"
        }
      }
    },
    "stateVariables": {
      "lands": {
        "details": "All the lands"
      },
      "landsByOwner": {
        "details": "Land indices grouped by owners"
      },
      "lastLandId": {
        "details": "Lands counter"
      },
      "ownersByLandId": {
        "details": "Owners grouped by land IDs"
      }
    },
    "title": "This contract represents a land/agricultural resource",
    "version": 1
  },
  "userdoc": {
    "kind": "user",
    "methods": {},
    "version": 1
  }
}