{
  "contractName": "Portion",
  "abi": [
    {
      "inputs": [
        {
          "internalType": "uint256",
          "name": "_landId",
          "type": "uint256"
        },
        {
          "internalType": "string",
          "name": "_description",
          "type": "string"
        },
        {
          "internalType": "address",
          "name": "_source",
          "type": "address"
        }
      ],
      "name": "register",
      "outputs": [],
      "stateMutability": "nonpayable",
      "type": "function"
    },
    {
      "inputs": [
        {
          "internalType": "uint256",
          "name": "_landId",
          "type": "uint256"
        },
        {
          "internalType": "string",
          "name": "_description",
          "type": "string"
        }
      ],
      "name": "register",
      "outputs": [],
      "stateMutability": "nonpayable",
      "type": "function"
    },
    {
      "inputs": [
        {
          "internalType": "uint256",
          "name": "_id",
          "type": "uint256"
        },
        {
          "internalType": "bytes32",
          "name": "_document",
          "type": "bytes32"
        },
        {
          "internalType": "bytes32",
          "name": "_base64",
          "type": "bytes32"
        }
      ],
      "name": "registerDocument",
      "outputs": [],
      "stateMutability": "nonpayable",
      "type": "function"
    },
    {
      "inputs": [
        {
          "internalType": "uint256",
          "name": "_portionId",
          "type": "uint256"
        },
        {
          "internalType": "uint256",
          "name": "_price",
          "type": "uint256"
        },
        {
          "internalType": "uint256",
          "name": "_duration",
          "type": "uint256"
        },
        {
          "internalType": "string",
          "name": "_expectedProduction",
          "type": "string"
        },
        {
          "internalType": "string",
          "name": "_periodicity",
          "type": "string"
        },
        {
          "internalType": "uint256",
          "name": "_expectedMaintenanceCost",
          "type": "uint256"
        },
        {
          "internalType": "uint256",
          "name": "_expectedProdActivityCost",
          "type": "uint256"
        },
        {
          "internalType": "address",
          "name": "_buyer",
          "type": "address"
        }
      ],
      "name": "defineTerms",
      "outputs": [],
      "stateMutability": "nonpayable",
      "type": "function"
    },
    {
      "inputs": [
        {
          "internalType": "uint256",
          "name": "_id",
          "type": "uint256"
        },
        {
          "internalType": "address",
          "name": "_buyer",
          "type": "address"
        },
        {
          "internalType": "address",
          "name": "_source",
          "type": "address"
        }
      ],
      "name": "sell",
      "outputs": [],
      "stateMutability": "nonpayable",
      "type": "function"
    },
    {
      "inputs": [
        {
          "internalType": "uint256",
          "name": "_id",
          "type": "uint256"
        },
        {
          "internalType": "address",
          "name": "_buyer",
          "type": "address"
        }
      ],
      "name": "sell",
      "outputs": [],
      "stateMutability": "nonpayable",
      "type": "function"
    },
    {
      "inputs": [
        {
          "internalType": "uint256",
          "name": "_id",
          "type": "uint256"
        }
      ],
      "name": "ownershipExpiration",
      "outputs": [],
      "stateMutability": "nonpayable",
      "type": "function"
    },
    {
      "inputs": [
        {
          "internalType": "uint256",
          "name": "_id",
          "type": "uint256"
        }
      ],
      "name": "getById",
      "outputs": [
        {
          "components": [
            {
              "internalType": "uint256",
              "name": "land",
              "type": "uint256"
            },
            {
              "internalType": "string",
              "name": "description",
              "type": "string"
            },
            {
              "internalType": "bytes32[]",
              "name": "documents",
              "type": "bytes32[]"
            },
            {
              "internalType": "bytes32[]",
              "name": "hashes",
              "type": "bytes32[]"
            },
            {
              "internalType": "bool",
              "name": "hasValue",
              "type": "bool"
            }
          ],
          "internalType": "struct Portion.Data",
          "name": "",
          "type": "tuple"
        },
        {
          "components": [
            {
              "internalType": "uint256",
              "name": "price",
              "type": "uint256"
            },
            {
              "internalType": "uint256",
              "name": "duration",
              "type": "uint256"
            },
            {
              "internalType": "string",
              "name": "expectedProduction",
              "type": "string"
            },
            {
              "internalType": "string",
              "name": "periodicity",
              "type": "string"
            },
            {
              "internalType": "uint256",
              "name": "expectedMaintenanceCost",
              "type": "uint256"
            },
            {
              "internalType": "uint256",
              "name": "expectedProdActivityCost",
              "type": "uint256"
            },
            {
              "internalType": "address",
              "name": "owner",
              "type": "address"
            },
            {
              "internalType": "address",
              "name": "buyer",
              "type": "address"
            }
          ],
          "internalType": "struct Portion.TermsOfSale",
          "name": "",
          "type": "tuple"
        }
      ],
      "stateMutability": "view",
      "type": "function",
      "constant": true
    },
    {
      "inputs": [
        {
          "internalType": "uint256",
          "name": "_land",
          "type": "uint256"
        }
      ],
      "name": "getByLand",
      "outputs": [
        {
          "internalType": "uint256[]",
          "name": "",
          "type": "uint256[]"
        }
      ],
      "stateMutability": "view",
      "type": "function",
      "constant": true
    },
    {
      "inputs": [
        {
          "internalType": "address",
          "name": "_owner",
          "type": "address"
        }
      ],
      "name": "getByOwner",
      "outputs": [
        {
          "internalType": "uint256[]",
          "name": "",
          "type": "uint256[]"
        }
      ],
      "stateMutability": "view",
      "type": "function",
      "constant": true
    },
    {
      "inputs": [
        {
          "internalType": "address",
          "name": "_buyer",
          "type": "address"
        }
      ],
      "name": "getByBuyer",
      "outputs": [
        {
          "internalType": "uint256[]",
          "name": "",
          "type": "uint256[]"
        }
      ],
      "stateMutability": "view",
      "type": "function",
      "constant": true
    },
    {
      "inputs": [
        {
          "internalType": "uint256",
          "name": "_id",
          "type": "uint256"
        }
      ],
      "name": "getBuyersByPortion",
      "outputs": [
        {
          "internalType": "address[]",
          "name": "",
          "type": "address[]"
        }
      ],
      "stateMutability": "view",
      "type": "function",
      "constant": true
    },
    {
      "inputs": [],
      "name": "getTotal",
      "outputs": [
        {
          "internalType": "uint256",
          "name": "",
          "type": "uint256"
        }
      ],
      "stateMutability": "view",
      "type": "function",
      "constant": true
    },
    {
      "inputs": [
        {
          "internalType": "string",
          "name": "_description",
          "type": "string"
        },
        {
          "internalType": "uint256",
          "name": "_id",
          "type": "uint256"
        },
        {
          "internalType": "address",
          "name": "_contractAddress",
          "type": "address"
        }
      ],
      "name": "registerProduct",
      "outputs": [],
      "stateMutability": "nonpayable",
      "type": "function"
    },
    {
      "inputs": [
        {
          "internalType": "string",
          "name": "_description",
          "type": "string"
        },
        {
          "internalType": "uint256",
          "name": "_id",
          "type": "uint256"
        },
        {
          "internalType": "address",
          "name": "_contractAddress",
          "type": "address"
        }
      ],
      "name": "registerProductionActivity",
      "outputs": [],
      "stateMutability": "nonpayable",
      "type": "function"
    },
    {
      "inputs": [
        {
          "internalType": "string",
          "name": "_description",
          "type": "string"
        },
        {
          "internalType": "uint256",
          "name": "_id",
          "type": "uint256"
        },
        {
          "internalType": "address",
          "name": "_contractAddress",
          "type": "address"
        }
      ],
      "name": "registerMaintenance",
      "outputs": [],
      "stateMutability": "nonpayable",
      "type": "function"
    }
  ],
  "bytecode": "0x608060405234801561001057600080fd5b5061270f806100206000396000f3fe608060405234801561001057600080fd5b50600436106101005760003560e01c80636f08e177116100975780639a654c34116100665780639a654c3414610293578063a00fd3c8146102af578063f4f4d237146102cb578063fa5f9559146102fc57610100565b80636f08e177146102215780637681365e1461023d578063775a25e31461025957806385fa82c21461027757610100565b806354572223116100d357806354572223146101b15780635a67fff1146101cd578063601219b7146101e9578063682563c31461020557610100565b806322be8da114610105578063379c5131146101355780633b8d33f2146101655780634189a68e14610195575b600080fd5b61011f600480360381019061011a9190611aaf565b61032c565b60405161012c9190612304565b60405180910390f35b61014f600480360381019061014a9190611aaf565b6103c3565b60405161015c9190612304565b60405180910390f35b61017f600480360381019061017a9190611b44565b61045a565b60405161018c9190612304565b60405180910390f35b6101af60048036038101906101aa9190611b6d565b6104c5565b005b6101cb60048036038101906101c69190611d0b565b61064a565b005b6101e760048036038101906101e29190611ad8565b610823565b005b61020360048036038101906101fe9190611c9f565b6108fc565b005b61021f600480360381019061021a9190611ad8565b610bc8565b005b61023b60048036038101906102369190611ba9565b610ca1565b005b61025760048036038101906102529190611b44565b610ee5565b005b6102616110c0565b60405161026e919061245d565b60405180910390f35b610291600480360381019061028c9190611bf8565b6110ca565b005b6102ad60048036038101906102a89190611ad8565b6111ed565b005b6102c960048036038101906102c49190611c47565b6112c6565b005b6102e560048036038101906102e09190611b44565b6113d5565b6040516102f3929190612426565b60405180910390f35b61031660048036038101906103119190611b44565b6117bf565b60405161032391906122e2565b60405180910390f35b6060600360008373ffffffffffffffffffffffffffffffffffffffff1673ffffffffffffffffffffffffffffffffffffffff1681526020019081526020016000208054806020026020016040519081016040528092919081815260200182805480156103b757602002820191906000526020600020905b8154815260200190600101908083116103a3575b50505050509050919050565b6060600260008373ffffffffffffffffffffffffffffffffffffffff1673ffffffffffffffffffffffffffffffffffffffff16815260200190815260200160002080548060200260200160405190810160405280929190818152602001828054801561044e57602002820191906000526020600020905b81548152602001906001019080831161043a575b50505050509050919050565b6060600160008381526020019081526020016000208054806020026020016040519081016040528092919081815260200182805480156104b957602002820191906000526020600020905b8154815260200190600101908083116104a5575b50505050509050919050565b813373ffffffffffffffffffffffffffffffffffffffff166004600083815260200190815260200160002060060160009054906101000a900473ffffffffffffffffffffffffffffffffffffffff1673ffffffffffffffffffffffffffffffffffffffff16148061059757503373ffffffffffffffffffffffffffffffffffffffff166004600083815260200190815260200160002060070160009054906101000a900473ffffffffffffffffffffffffffffffffffffffff1673ffffffffffffffffffffffffffffffffffffffff16145b6105d6576040517f08c379a00000000000000000000000000000000000000000000000000000000081526004016105cd906123a6565b60405180910390fd5b3073ffffffffffffffffffffffffffffffffffffffff16636f08e1778484336040518463ffffffff1660e01b815260040161061393929190612478565b600060405180830381600087803b15801561062d57600080fd5b505af1158015610641573d6000803e3d6000fd5b50505050505050565b893373ffffffffffffffffffffffffffffffffffffffff166004600083815260200190815260200160002060060160009054906101000a900473ffffffffffffffffffffffffffffffffffffffff1673ffffffffffffffffffffffffffffffffffffffff16146106ef576040517f08c379a00000000000000000000000000000000000000000000000000000000081526004016106e6906123c6565b60405180910390fd5b89600460008d81526020019081526020016000206000018190555088600460008d8152602001908152602001600020600101819055508787600460008e8152602001908152602001600020600201919061074a929190611860565b508585600460008e81526020019081526020016000206003019190610770929190611860565b5083600460008d81526020019081526020016000206004018190555082600460008d8152602001908152602001600020600501819055503073ffffffffffffffffffffffffffffffffffffffff16636f08e1778c84336040518463ffffffff1660e01b81526004016107e493929190612478565b600060405180830381600087803b1580156107fe57600080fd5b505af1158015610812573d6000803e3d6000fd5b505050505050505050505050505050565b60008083815260200190815260200160002060040160009054906101000a900460ff16610885576040517f08c379a000000000000000000000000000000000000000000000000000000000815260040161087c906123e6565b60405180910390fd5b8073ffffffffffffffffffffffffffffffffffffffff16635dc1aad3858585336040518563ffffffff1660e01b81526004016108c49493929190612326565b600060405180830381600087803b1580156108de57600080fd5b505af11580156108f2573d6000803e3d6000fd5b5050505050505050565b600260016000868152602001908152602001600020805490501415610956576040517f08c379a000000000000000000000000000000000000000000000000000000000815260040161094d90612406565b60405180910390fd5b6001600085815260200190815260200160002060065490806001815401808255809150506001900390600052602060002001600090919091909150556001600085815260200190815260200160002060016006540190806001815401808255809150506001900390600052602060002001600090919091909150558060046000600654815260200190815260200160002060060160006101000a81548173ffffffffffffffffffffffffffffffffffffffff021916908373ffffffffffffffffffffffffffffffffffffffff160217905560046000600160065401815260200190815260200160002060060160006101000a81548173ffffffffffffffffffffffffffffffffffffffff021916908373ffffffffffffffffffffffffffffffffffffffff160217905550600260008273ffffffffffffffffffffffffffffffffffffffff1673ffffffffffffffffffffffffffffffffffffffff1681526020019081526020016000206006549080600181540180825580915050600190039060005260206000200160009091909190915055600260008273ffffffffffffffffffffffffffffffffffffffff1673ffffffffffffffffffffffffffffffffffffffff16815260200190815260200160002060016006540190806001815401808255809150506001900390600052602060002001600090919091909150553073ffffffffffffffffffffffffffffffffffffffff1663a00fd3c88585856040518463ffffffff1660e01b8152600401610b90939291906124af565b600060405180830381600087803b158015610baa57600080fd5b505af1158015610bbe573d6000803e3d6000fd5b5050505050505050565b60008083815260200190815260200160002060040160009054906101000a900460ff16610c2a576040517f08c379a0000000000000000000000000000000000000000000000000000000008152600401610c21906123e6565b60405180910390fd5b8073ffffffffffffffffffffffffffffffffffffffff16635dc1aad3858585336040518563ffffffff1660e01b8152600401610c699493929190612326565b600060405180830381600087803b158015610c8357600080fd5b505af1158015610c97573d6000803e3d6000fd5b5050505050505050565b8073ffffffffffffffffffffffffffffffffffffffff166004600085815260200190815260200160002060060160009054906101000a900473ffffffffffffffffffffffffffffffffffffffff1673ffffffffffffffffffffffffffffffffffffffff161480610d7257508073ffffffffffffffffffffffffffffffffffffffff166004600085815260200190815260200160002060070160009054906101000a900473ffffffffffffffffffffffffffffffffffffffff1673ffffffffffffffffffffffffffffffffffffffff16145b610db1576040517f08c379a0000000000000000000000000000000000000000000000000000000008152600401610da8906123a6565b60405180910390fd5b816004600085815260200190815260200160002060070160006101000a81548173ffffffffffffffffffffffffffffffffffffffff021916908373ffffffffffffffffffffffffffffffffffffffff160217905550600360008373ffffffffffffffffffffffffffffffffffffffff1673ffffffffffffffffffffffffffffffffffffffff16815260200190815260200160002083908060018154018082558091505060019003906000526020600020016000909190919091505560056000848152602001908152602001600020829080600181540180825580915050600190039060005260206000200160009091909190916101000a81548173ffffffffffffffffffffffffffffffffffffffff021916908373ffffffffffffffffffffffffffffffffffffffff160217905550505050565b60008082815260200190815260200160002060040160009054906101000a900460ff16610f47576040517f08c379a0000000000000000000000000000000000000000000000000000000008152600401610f3e906123e6565b60405180910390fd5b600073ffffffffffffffffffffffffffffffffffffffff166004600083815260200190815260200160002060070160009054906101000a900473ffffffffffffffffffffffffffffffffffffffff1673ffffffffffffffffffffffffffffffffffffffff161415610fed576040517f08c379a0000000000000000000000000000000000000000000000000000000008152600401610fe490612386565b60405180910390fd5b6000600460008381526020019081526020016000206001015414806110275750600460008281526020019081526020016000206001015442105b15611067576040517f08c379a000000000000000000000000000000000000000000000000000000000815260040161105e90612366565b60405180910390fd5b60006004600083815260200190815260200160002060070160006101000a81548173ffffffffffffffffffffffffffffffffffffffff021916908373ffffffffffffffffffffffffffffffffffffffff16021790555050565b6000600654905090565b823373ffffffffffffffffffffffffffffffffffffffff166004600083815260200190815260200160002060060160009054906101000a900473ffffffffffffffffffffffffffffffffffffffff1673ffffffffffffffffffffffffffffffffffffffff161461116f576040517f08c379a0000000000000000000000000000000000000000000000000000000008152600401611166906123c6565b60405180910390fd5b60008085815260200190815260200160002060020183908060018154018082558091505060019003906000526020600020016000909190919091505560008085815260200190815260200160002060030182908060018154018082558091505060019003906000526020600020016000909190919091505550505050565b60008083815260200190815260200160002060040160009054906101000a900460ff1661124f576040517f08c379a0000000000000000000000000000000000000000000000000000000008152600401611246906123e6565b60405180910390fd5b8073ffffffffffffffffffffffffffffffffffffffff16635dc1aad3858585336040518563ffffffff1660e01b815260040161128e9493929190612326565b600060405180830381600087803b1580156112a857600080fd5b505af11580156112bc573d6000803e3d6000fd5b5050505050505050565b8181600080600654815260200190815260200160002060010191906112ec929190611860565b600080600160065401815260200190815260200160002060010190805460018160011615610100020316600290046113259291906118e0565b508260008060065481526020019081526020016000206000018190556000806001600654018152602001908152602001600020600001819055506001600080600654815260200190815260200160002060040160006101000a81548160ff0219169083151502179055600080600160065401815260200190815260200160002060040160006101000a81548160ff0219169083151502179055506002600660008282540192505081905550505050565b6113dd611967565b6113e5611998565b60008084815260200190815260200160002060046000858152602001908152602001600020816040518060a001604052908160008201548152602001600182018054600181600116156101000203166002900480601f0160208091040260200160405190810160405280929190818152602001828054600181600116156101000203166002900480156114b95780601f1061148e576101008083540402835291602001916114b9565b820191906000526020600020905b81548152906001019060200180831161149c57829003601f168201915b505050505081526020016002820180548060200260200160405190810160405280929190818152602001828054801561151157602002820191906000526020600020905b8154815260200190600101908083116114fd575b505050505081526020016003820180548060200260200160405190810160405280929190818152602001828054801561156957602002820191906000526020600020905b815481526020019060010190808311611555575b505050505081526020016004820160009054906101000a900460ff161515151581525050915080604051806101000160405290816000820154815260200160018201548152602001600282018054600181600116156101000203166002900480601f0160208091040260200160405190810160405280929190818152602001828054600181600116156101000203166002900480156116495780601f1061161e57610100808354040283529160200191611649565b820191906000526020600020905b81548152906001019060200180831161162c57829003601f168201915b50505050508152602001600382018054600181600116156101000203166002900480601f0160208091040260200160405190810160405280929190818152602001828054600181600116156101000203166002900480156116eb5780601f106116c0576101008083540402835291602001916116eb565b820191906000526020600020905b8154815290600101906020018083116116ce57829003601f168201915b5050505050815260200160048201548152602001600582015481526020016006820160009054906101000a900473ffffffffffffffffffffffffffffffffffffffff1673ffffffffffffffffffffffffffffffffffffffff1673ffffffffffffffffffffffffffffffffffffffff1681526020016007820160009054906101000a900473ffffffffffffffffffffffffffffffffffffffff1673ffffffffffffffffffffffffffffffffffffffff1673ffffffffffffffffffffffffffffffffffffffff1681525050905091509150915091565b60606005600083815260200190815260200160002080548060200260200160405190810160405280929190818152602001828054801561185457602002820191906000526020600020905b8160009054906101000a900473ffffffffffffffffffffffffffffffffffffffff1673ffffffffffffffffffffffffffffffffffffffff168152602001906001019080831161180a575b50505050509050919050565b828054600181600116156101000203166002900490600052602060002090601f016020900481019282601f106118a157803560ff19168380011785556118cf565b828001600101855582156118cf579182015b828111156118ce5782358255916020019190600101906118b3565b5b5090506118dc9190611a09565b5090565b828054600181600116156101000203166002900490600052602060002090601f016020900481019282601f106119195780548555611956565b8280016001018555821561195657600052602060002091601f016020900482015b8281111561195557825482559160010191906001019061193a565b5b5090506119639190611a09565b5090565b6040518060a00160405280600081526020016060815260200160608152602001606081526020016000151581525090565b604051806101000160405280600081526020016000815260200160608152602001606081526020016000815260200160008152602001600073ffffffffffffffffffffffffffffffffffffffff168152602001600073ffffffffffffffffffffffffffffffffffffffff1681525090565b5b80821115611a22576000816000905550600101611a0a565b5090565b600081359050611a3581612694565b92915050565b600081359050611a4a816126ab565b92915050565b60008083601f840112611a6257600080fd5b8235905067ffffffffffffffff811115611a7b57600080fd5b602083019150836001820283011115611a9357600080fd5b9250929050565b600081359050611aa9816126c2565b92915050565b600060208284031215611ac157600080fd5b6000611acf84828501611a26565b91505092915050565b60008060008060608587031215611aee57600080fd5b600085013567ffffffffffffffff811115611b0857600080fd5b611b1487828801611a50565b94509450506020611b2787828801611a9a565b9250506040611b3887828801611a26565b91505092959194509250565b600060208284031215611b5657600080fd5b6000611b6484828501611a9a565b91505092915050565b60008060408385031215611b8057600080fd5b6000611b8e85828601611a9a565b9250506020611b9f85828601611a26565b9150509250929050565b600080600060608486031215611bbe57600080fd5b6000611bcc86828701611a9a565b9350506020611bdd86828701611a26565b9250506040611bee86828701611a26565b9150509250925092565b600080600060608486031215611c0d57600080fd5b6000611c1b86828701611a9a565b9350506020611c2c86828701611a3b565b9250506040611c3d86828701611a3b565b9150509250925092565b600080600060408486031215611c5c57600080fd5b6000611c6a86828701611a9a565b935050602084013567ffffffffffffffff811115611c8757600080fd5b611c9386828701611a50565b92509250509250925092565b60008060008060608587031215611cb557600080fd5b6000611cc387828801611a9a565b945050602085013567ffffffffffffffff811115611ce057600080fd5b611cec87828801611a50565b93509350506040611cff87828801611a26565b91505092959194509250565b6000806000806000806000806000806101008b8d031215611d2b57600080fd5b6000611d398d828e01611a9a565b9a50506020611d4a8d828e01611a9a565b9950506040611d5b8d828e01611a9a565b98505060608b013567ffffffffffffffff811115611d7857600080fd5b611d848d828e01611a50565b975097505060808b013567ffffffffffffffff811115611da357600080fd5b611daf8d828e01611a50565b955095505060a0611dc28d828e01611a9a565b93505060c0611dd38d828e01611a9a565b92505060e0611de48d828e01611a26565b9150509295989b9194979a5092959850565b6000611e028383611e4d565b60208301905092915050565b6000611e1a8383611f94565b60208301905092915050565b6000611e3283836122c4565b60208301905092915050565b611e478161260b565b82525050565b611e56816125b9565b82525050565b611e65816125b9565b82525050565b6000611e7682612511565b611e808185612564565b9350611e8b836124e1565b8060005b83811015611ebc578151611ea38882611df6565b9750611eae8361253d565b925050600181019050611e8f565b5085935050505092915050565b6000611ed48261251c565b611ede8185612575565b9350611ee9836124f1565b8060005b83811015611f1a578151611f018882611e0e565b9750611f0c8361254a565b925050600181019050611eed565b5085935050505092915050565b6000611f3282612527565b611f3c8185612586565b9350611f4783612501565b8060005b83811015611f78578151611f5f8882611e26565b9750611f6a83612557565b925050600181019050611f4b565b5085935050505092915050565b611f8e816125cb565b82525050565b611f9d816125d7565b82525050565b6000611faf83856125a8565b9350611fbc838584612641565b611fc583612683565b840190509392505050565b6000611fdb82612532565b611fe58185612597565b9350611ff5818560208601612650565b611ffe81612683565b840191505092915050565b6000612016601f836125a8565b91507f4f776e65736869702065787069726174696f6e206e6f7420616c6c6f776564006000830152602082019050919050565b60006120566010836125a8565b91507f4275796572206973206e6f7420736574000000000000000000000000000000006000830152602082019050919050565b6000612096601f836125a8565b91507f4f6e6c79206f776e6572206f722062757965722061726520616c6c6f776564006000830152602082019050919050565b60006120d66015836125a8565b91507f4f6e6c79206f776e657220697320616c6c6f77656400000000000000000000006000830152602082019050919050565b60006121166016836125a8565b91507f456c656d656e7420646f6573206e6f74206578697374000000000000000000006000830152602082019050919050565b60006121566019836125a8565b91507f506f7274696f6e2063616e6e6f742062652063726561746564000000000000006000830152602082019050919050565b600060a0830160008301516121a160008601826122c4565b50602083015184820360208601526121b98282611fd0565b915050604083015184820360408601526121d38282611ec9565b915050606083015184820360608601526121ed8282611ec9565b91505060808301516122026080860182611f85565b508091505092915050565b60006101008301600083015161222660008601826122c4565b50602083015161223960208601826122c4565b50604083015184820360408601526122518282611fd0565b9150506060830151848203606086015261226b8282611fd0565b915050608083015161228060808601826122c4565b5060a083015161229360a08601826122c4565b5060c08301516122a660c0860182611e4d565b5060e08301516122b960e0860182611e4d565b508091505092915050565b6122cd81612601565b82525050565b6122dc81612601565b82525050565b600060208201905081810360008301526122fc8184611e6b565b905092915050565b6000602082019050818103600083015261231e8184611f27565b905092915050565b60006060820190508181036000830152612341818688611fa3565b905061235060208301856122d3565b61235d6040830184611e3e565b95945050505050565b6000602082019050818103600083015261237f81612009565b9050919050565b6000602082019050818103600083015261239f81612049565b9050919050565b600060208201905081810360008301526123bf81612089565b9050919050565b600060208201905081810360008301526123df816120c9565b9050919050565b600060208201905081810360008301526123ff81612109565b9050919050565b6000602082019050818103600083015261241f81612149565b9050919050565b600060408201905081810360008301526124408185612189565b90508181036020830152612454818461220d565b90509392505050565b600060208201905061247260008301846122d3565b92915050565b600060608201905061248d60008301866122d3565b61249a6020830185611e5c565b6124a76040830184611e3e565b949350505050565b60006040820190506124c460008301866122d3565b81810360208301526124d7818486611fa3565b9050949350505050565b6000819050602082019050919050565b6000819050602082019050919050565b6000819050602082019050919050565b600081519050919050565b600081519050919050565b600081519050919050565b600081519050919050565b6000602082019050919050565b6000602082019050919050565b6000602082019050919050565b600082825260208201905092915050565b600082825260208201905092915050565b600082825260208201905092915050565b600082825260208201905092915050565b600082825260208201905092915050565b60006125c4826125e1565b9050919050565b60008115159050919050565b6000819050919050565b600073ffffffffffffffffffffffffffffffffffffffff82169050919050565b6000819050919050565b60006126168261261d565b9050919050565b60006126288261262f565b9050919050565b600061263a826125e1565b9050919050565b82818337600083830152505050565b60005b8381101561266e578082015181840152602081019050612653565b8381111561267d576000848401525b50505050565b6000601f19601f8301169050919050565b61269d816125b9565b81146126a857600080fd5b50565b6126b4816125d7565b81146126bf57600080fd5b50565b6126cb81612601565b81146126d657600080fd5b5056fea264697066735822122047ff4f72dcde2e92e54231aa9f6836857323eb329bd22e4e1bdb89f1851433d164736f6c634300060c0033",
  "immutableReferences": {},
  "source": "// SPDX-License-Identifier: MIT\n\npragma solidity ^0.6.0;\npragma experimental ABIEncoderV2;\n\n//import '../../OpenZeppelin/openzeppelin-contracts/contracts/math/SafeMath.sol';\nimport '@openzeppelin/contracts/math/SafeMath.sol';\n\nimport './Product.sol';\nimport './Maintenance.sol';\nimport './ProductionActivity.sol';\n\n/// @title Contract representing a portion of land\ncontract Portion {\n    using SafeMath for uint256;\n    \n    /// @dev Portion data\n    struct Data {\n        uint256 land;\n        string description;\n        bytes32[] documents;\n        bytes32[] hashes;\n        bool hasValue;\n    }\n    \n    /// @notice Duration parameter can be perpetual (0) or for n years\n    struct TermsOfSale {\n        uint256 price;\n        uint256 duration;\n        string expectedProduction;\n        string periodicity;\n        uint256 expectedMaintenanceCost;\n        uint256 expectedProdActivityCost;\n        address owner;\n        address buyer;\n    }\n    \n    /// @dev All the portions\n    mapping (uint256 => Data) private portions;\n    /// @dev Portions grouped by land\n    mapping (uint256 => uint256[]) private portionsByLand;\n    /// @dev Portions grouped by owner's address\n    mapping (address => uint256[]) private portionsByOwner;\n    /// @dev Portions grouped by buyer's address\n    mapping (address => uint256[]) private portionsByBuyer;\n    /// @dev All the portion terms\n    mapping (uint256 => TermsOfSale) private portionTerms;\n    /// @dev Buyers grouped by portion\n    mapping (uint256 => address[]) buyersByPortions;\n    \n    /// @dev Portion counter\n    uint256 private lastPortionId;\n    \n    /// @dev Portion terms can be defined only by the portion owner\n    modifier onlyOwner(uint256 _portionId) {\n        require(portionTerms[_portionId].owner == msg.sender, 'Only owner is allowed');\n        _;\n    }\n    \n    /// @dev Selling or transferring ownership can be performed only by owner or buyer\n    modifier onlyOwnerAndBuyer(uint256 _portionId) {\n        require(portionTerms[_portionId].owner == msg.sender || portionTerms[_portionId].buyer == msg.sender, 'Only owner or buyer are allowed');\n        _;\n    }\n    \n    /// @param _landId Land to be divided\n    /// @param _description Portion description\n    function register(uint256 _landId, string calldata _description) public {\n        portions[lastPortionId + 1].description = portions[lastPortionId].description = _description;\n        portions[lastPortionId + 1].land = portions[lastPortionId].land = _landId;\n        \n        portions[lastPortionId + 1].hasValue = portions[lastPortionId].hasValue = true;\n        \n        lastPortionId += 2;\n    }\n\n    /// @param _landId Land to be divided\n    /// @param _description Portion description\n    /// @param _source Original sender from divide land\n    function register(uint256 _landId, string calldata _description, address _source) public {\n        if (portionsByLand[_landId].length == 2) revert ('Portion cannot be created');\n\n        portionsByLand[_landId].push(lastPortionId);\n        portionsByLand[_landId].push(lastPortionId + 1);\n        portionTerms[lastPortionId + 1].owner = portionTerms[lastPortionId].owner = _source;\n        portionsByOwner[_source].push(lastPortionId);\n        portionsByOwner[_source].push(lastPortionId + 1);\n\n        this.register(_landId, _description);\n    }\n\n    /// @param _id Portion ID\n    /// @param _document Document name\n    /// @param _base64 Base64 document\n    function registerDocument(uint256 _id, bytes32 _document, bytes32 _base64) external onlyOwner(_id) {\n        portions[_id].documents.push(_document);\n        portions[_id].hashes.push(_base64);\n    }\n    \n    /// @param _portionId ID of portion related\n    /// @param _price Contract price\n    /// @param _duration Contract duration\n    /// @param _expectedProduction Production expected from the portion\n    /// @param _periodicity Production periodicity\n    /// @param _expectedMaintenanceCost Costs expected for maintenance\n    /// @param _expectedProdActivityCost Costs expected for production-related activities \n    /// @param _buyer New buyer\n    function defineTerms(\n        uint256 _portionId,\n        uint256 _price,\n        uint256 _duration,\n        string calldata _expectedProduction,\n        string calldata _periodicity,\n        uint256 _expectedMaintenanceCost,\n        uint256 _expectedProdActivityCost,\n        address _buyer\n    ) external onlyOwner(_portionId) {\n        portionTerms[_portionId].price = _price;\n        portionTerms[_portionId].duration = _duration;\n        portionTerms[_portionId].expectedProduction = _expectedProduction;\n        portionTerms[_portionId].periodicity = _periodicity;\n        portionTerms[_portionId].expectedMaintenanceCost = _expectedMaintenanceCost;\n        portionTerms[_portionId].expectedProdActivityCost = _expectedProdActivityCost;\n\n        this.sell(_portionId, _buyer, msg.sender);\n    }\n\n    /// @notice Sell and transfer ownership\n    /// @param _id Portion ID\n    /// @param _buyer New buyer\n    /// @param _source Sender\n    function sell(uint256 _id, address _buyer, address _source) public {\n        if (!(portionTerms[_id].owner == _source || portionTerms[_id].buyer == _source)) revert ('Only owner or buyer are allowed');\n\n        portionTerms[_id].buyer = _buyer;\n        portionsByBuyer[_buyer].push(_id);\n        \n        buyersByPortions[_id].push(_buyer);\n    }\n    \n    /// @notice Sell and transfer ownership\n    /// @param _id Portion ID\n    /// @param _buyer New buyer\n    function sell(uint256 _id, address _buyer) external onlyOwnerAndBuyer(_id) {\n        this.sell(_id, _buyer, msg.sender);\n    }\n    \n    /// @param _id Portion ID\n    function ownershipExpiration(uint256 _id) external {\n        if (!portions[_id].hasValue) revert('Element does not exist');\n        if (portionTerms[_id].buyer == address(0)) revert('Buyer is not set');\n        if (portionTerms[_id].duration == 0 || now < portionTerms[_id].duration) revert('Owneship expiration not allowed');\n        portionTerms[_id].buyer = address(0);\n    }\n    \n    /// @param _id Portion ID\n    /// return the tuple containing the data related to the portion and its terms of sale\n    function getById(uint256 _id) external view returns (Data memory, TermsOfSale memory) {\n        return (portions[_id], portionTerms[_id]);\n    }\n\n    /// @param _land Land ID\n    /// return the array containing all the portions in a land\n    function getByLand(uint256 _land) external view returns (uint256[] memory) {\n        return (portionsByLand[_land]);\n    }\n    \n    /// @param _owner Owner address\n    /// @return the array containing all the portions owned\n    function getByOwner(address _owner) external view returns (uint256[] memory) {\n        return portionsByOwner[_owner];\n    }\n\n    /// @param _buyer Buyer address\n    /// @return the array containing all the portions bought\n    function getByBuyer(address _buyer) external view returns (uint256[] memory) {\n        return portionsByBuyer[_buyer];\n    }\n    \n    /// @param _id Portion ID\n    /// @return the array containing all the buyers for that portion\n    function getBuyersByPortion(uint256 _id) external view returns (address[] memory) {\n        return buyersByPortions[_id];\n    }\n    \n    /// @return the number of registered portions\n    function getTotal() external view returns (uint256) {\n        return lastPortionId;\n    }\n    \n    /// @param _description Product description\n    /// @param _id Portion ID for registering the product\n    /// @param _contractAddress Product contract address\n    function registerProduct(string calldata _description, uint256 _id, address _contractAddress) external {\n        if (!portions[_id].hasValue) revert('Element does not exist');\n        Product(_contractAddress).register(_description, _id, msg.sender);\n    }\n    \n    /// @param _description Production description\n    /// @param _id Portion ID for registering the production\n    /// @param _contractAddress Production contract address\n    function registerProductionActivity(string calldata _description, uint256 _id, address _contractAddress) external {\n        if (!portions[_id].hasValue) revert('Element does not exist');\n        ProductionActivity(_contractAddress).register(_description, _id, msg.sender);\n    }\n    \n    /// @param _description Maintenance description\n    /// @param _id Portion ID for registering the maintenance\n    /// @param _contractAddress Maintenance contract address\n    function registerMaintenance(string calldata _description, uint256 _id, address _contractAddress) external {\n        if (!portions[_id].hasValue) revert('Element does not exist');\n        Maintenance(_contractAddress).register(_description, _id, msg.sender);\n    }\n    \n}\n",
  "sourcePath": "/home/francesca/WebstormProjects/PSAB-Contracts/contracts/Portion.sol",
  "compiler": {
    "name": "solc",
    "version": "0.6.12+commit.27d51765.Emscripten.clang"
  },
  "schemaVersion": "3.2.5",
  "updatedAt": "2020-10-24T23:36:09.196Z",
  "networkType": "ethereum",
  "devdoc": {
    "kind": "dev",
    "methods": {
      "defineTerms(uint256,uint256,uint256,string,string,uint256,uint256,address)": {
        "params": {
          "_buyer": "New buyer",
          "_duration": "Contract duration",
          "_expectedMaintenanceCost": "Costs expected for maintenance",
          "_expectedProdActivityCost": "Costs expected for production-related activities ",
          "_expectedProduction": "Production expected from the portion",
          "_periodicity": "Production periodicity",
          "_portionId": "ID of portion related",
          "_price": "Contract price"
        }
      },
      "getBuyersByPortion(uint256)": {
        "params": {
          "_id": "Portion ID"
        },
        "returns": {
          "_0": "the array containing all the buyers for that portion"
        }
      },
      "getByBuyer(address)": {
        "params": {
          "_buyer": "Buyer address"
        },
        "returns": {
          "_0": "the array containing all the portions bought"
        }
      },
      "getById(uint256)": {
        "params": {
          "_id": "Portion ID return the tuple containing the data related to the portion and its terms of sale"
        }
      },
      "getByLand(uint256)": {
        "params": {
          "_land": "Land ID return the array containing all the portions in a land"
        }
      },
      "getByOwner(address)": {
        "params": {
          "_owner": "Owner address"
        },
        "returns": {
          "_0": "the array containing all the portions owned"
        }
      },
      "getTotal()": {
        "returns": {
          "_0": "the number of registered portions"
        }
      },
      "ownershipExpiration(uint256)": {
        "params": {
          "_id": "Portion ID"
        }
      },
      "register(uint256,string)": {
        "params": {
          "_description": "Portion description",
          "_landId": "Land to be divided"
        }
      },
      "register(uint256,string,address)": {
        "params": {
          "_description": "Portion description",
          "_landId": "Land to be divided",
          "_source": "Original sender from divide land"
        }
      },
      "registerDocument(uint256,bytes32,bytes32)": {
        "params": {
          "_base64": "Base64 document",
          "_document": "Document name",
          "_id": "Portion ID"
        }
      },
      "registerMaintenance(string,uint256,address)": {
        "params": {
          "_contractAddress": "Maintenance contract address",
          "_description": "Maintenance description",
          "_id": "Portion ID for registering the maintenance"
        }
      },
      "registerProduct(string,uint256,address)": {
        "params": {
          "_contractAddress": "Product contract address",
          "_description": "Product description",
          "_id": "Portion ID for registering the product"
        }
      },
      "registerProductionActivity(string,uint256,address)": {
        "params": {
          "_contractAddress": "Production contract address",
          "_description": "Production description",
          "_id": "Portion ID for registering the production"
        }
      },
      "sell(uint256,address)": {
        "params": {
          "_buyer": "New buyer",
          "_id": "Portion ID"
        }
      },
      "sell(uint256,address,address)": {
        "params": {
          "_buyer": "New buyer",
          "_id": "Portion ID",
          "_source": "Sender"
        }
      }
    },
    "stateVariables": {
      "buyersByPortions": {
        "details": "Buyers grouped by portion"
      },
      "lastPortionId": {
        "details": "Portion counter"
      },
      "portionTerms": {
        "details": "All the portion terms"
      },
      "portions": {
        "details": "All the portions"
      },
      "portionsByBuyer": {
        "details": "Portions grouped by buyer's address"
      },
      "portionsByLand": {
        "details": "Portions grouped by land"
      },
      "portionsByOwner": {
        "details": "Portions grouped by owner's address"
      }
    },
    "title": "Contract representing a portion of land",
    "version": 1
  },
  "userdoc": {
    "kind": "user",
    "methods": {
      "sell(uint256,address)": {
        "notice": "Sell and transfer ownership"
      },
      "sell(uint256,address,address)": {
        "notice": "Sell and transfer ownership"
      }
    },
    "version": 1
  }
}