{
  "contractName": "Portion",
  "abi": [
    {
      "inputs": [
        {
          "internalType": "uint256",
          "name": "_landId",
          "type": "uint256"
        },
        {
          "internalType": "string",
          "name": "_description",
          "type": "string"
        }
      ],
      "name": "register",
      "outputs": [],
      "stateMutability": "nonpayable",
      "type": "function"
    },
    {
      "inputs": [
        {
          "internalType": "uint256",
          "name": "_landId",
          "type": "uint256"
        },
        {
          "internalType": "string",
          "name": "_description",
          "type": "string"
        },
        {
          "internalType": "address",
          "name": "_source",
          "type": "address"
        }
      ],
      "name": "register",
      "outputs": [],
      "stateMutability": "nonpayable",
      "type": "function"
    },
    {
      "inputs": [
        {
          "internalType": "uint256",
          "name": "_id",
          "type": "uint256"
        },
        {
          "internalType": "bytes32",
          "name": "_document",
          "type": "bytes32"
        },
        {
          "internalType": "bytes32",
          "name": "_base64",
          "type": "bytes32"
        }
      ],
      "name": "registerDocument",
      "outputs": [],
      "stateMutability": "nonpayable",
      "type": "function"
    },
    {
      "inputs": [
        {
          "internalType": "uint256",
          "name": "_portionId",
          "type": "uint256"
        },
        {
          "internalType": "uint256",
          "name": "_price",
          "type": "uint256"
        },
        {
          "internalType": "uint256",
          "name": "_duration",
          "type": "uint256"
        },
        {
          "internalType": "string",
          "name": "_expectedProduction",
          "type": "string"
        },
        {
          "internalType": "string",
          "name": "_periodicity",
          "type": "string"
        },
        {
          "internalType": "uint256",
          "name": "_expectedMaintenanceCost",
          "type": "uint256"
        },
        {
          "internalType": "uint256",
          "name": "_expectedProdActivityCost",
          "type": "uint256"
        }
      ],
      "name": "defineTerms",
      "outputs": [],
      "stateMutability": "nonpayable",
      "type": "function"
    },
    {
      "inputs": [
        {
          "internalType": "uint256",
          "name": "_id",
          "type": "uint256"
        },
        {
          "internalType": "address",
          "name": "_buyer",
          "type": "address"
        }
      ],
      "name": "sell",
      "outputs": [],
      "stateMutability": "nonpayable",
      "type": "function"
    },
    {
      "inputs": [
        {
          "internalType": "uint256",
          "name": "_id",
          "type": "uint256"
        }
      ],
      "name": "ownershipExpiration",
      "outputs": [],
      "stateMutability": "nonpayable",
      "type": "function"
    },
    {
      "inputs": [
        {
          "internalType": "uint256",
          "name": "_id",
          "type": "uint256"
        }
      ],
      "name": "getById",
      "outputs": [
        {
          "components": [
            {
              "internalType": "uint256",
              "name": "land",
              "type": "uint256"
            },
            {
              "internalType": "string",
              "name": "description",
              "type": "string"
            },
            {
              "internalType": "bytes32[]",
              "name": "documents",
              "type": "bytes32[]"
            },
            {
              "internalType": "bytes32[]",
              "name": "hashes",
              "type": "bytes32[]"
            },
            {
              "internalType": "bool",
              "name": "hasValue",
              "type": "bool"
            }
          ],
          "internalType": "struct Portion.Data",
          "name": "",
          "type": "tuple"
        },
        {
          "components": [
            {
              "internalType": "uint256",
              "name": "price",
              "type": "uint256"
            },
            {
              "internalType": "uint256",
              "name": "duration",
              "type": "uint256"
            },
            {
              "internalType": "string",
              "name": "expectedProduction",
              "type": "string"
            },
            {
              "internalType": "string",
              "name": "periodicity",
              "type": "string"
            },
            {
              "internalType": "uint256",
              "name": "expectedMaintenanceCost",
              "type": "uint256"
            },
            {
              "internalType": "uint256",
              "name": "expectedProdActivityCost",
              "type": "uint256"
            },
            {
              "internalType": "address",
              "name": "owner",
              "type": "address"
            },
            {
              "internalType": "address",
              "name": "buyer",
              "type": "address"
            }
          ],
          "internalType": "struct Portion.TermsOfSale",
          "name": "",
          "type": "tuple"
        }
      ],
      "stateMutability": "view",
      "type": "function"
    },
    {
      "inputs": [
        {
          "internalType": "uint256",
          "name": "_land",
          "type": "uint256"
        }
      ],
      "name": "getByLand",
      "outputs": [
        {
          "internalType": "uint256[]",
          "name": "",
          "type": "uint256[]"
        }
      ],
      "stateMutability": "view",
      "type": "function"
    },
    {
      "inputs": [
        {
          "internalType": "address",
          "name": "_owner",
          "type": "address"
        }
      ],
      "name": "getByOwner",
      "outputs": [
        {
          "internalType": "uint256[]",
          "name": "",
          "type": "uint256[]"
        }
      ],
      "stateMutability": "view",
      "type": "function"
    },
    {
      "inputs": [
        {
          "internalType": "address",
          "name": "_buyer",
          "type": "address"
        }
      ],
      "name": "getByBuyer",
      "outputs": [
        {
          "internalType": "uint256[]",
          "name": "",
          "type": "uint256[]"
        }
      ],
      "stateMutability": "view",
      "type": "function"
    },
    {
      "inputs": [
        {
          "internalType": "uint256",
          "name": "_id",
          "type": "uint256"
        }
      ],
      "name": "getBuyersByPortion",
      "outputs": [
        {
          "internalType": "address[]",
          "name": "",
          "type": "address[]"
        }
      ],
      "stateMutability": "view",
      "type": "function"
    },
    {
      "inputs": [],
      "name": "getTotal",
      "outputs": [
        {
          "internalType": "uint256",
          "name": "",
          "type": "uint256"
        }
      ],
      "stateMutability": "view",
      "type": "function"
    },
    {
      "inputs": [
        {
          "internalType": "string",
          "name": "_description",
          "type": "string"
        },
        {
          "internalType": "uint256",
          "name": "_id",
          "type": "uint256"
        },
        {
          "internalType": "address",
          "name": "_contractAddress",
          "type": "address"
        }
      ],
      "name": "registerProduct",
      "outputs": [],
      "stateMutability": "nonpayable",
      "type": "function"
    },
    {
      "inputs": [
        {
          "internalType": "string",
          "name": "_description",
          "type": "string"
        },
        {
          "internalType": "uint256",
          "name": "_id",
          "type": "uint256"
        },
        {
          "internalType": "address",
          "name": "_contractAddress",
          "type": "address"
        }
      ],
      "name": "registerProductionActivity",
      "outputs": [],
      "stateMutability": "nonpayable",
      "type": "function"
    },
    {
      "inputs": [
        {
          "internalType": "string",
          "name": "_description",
          "type": "string"
        },
        {
          "internalType": "uint256",
          "name": "_id",
          "type": "uint256"
        },
        {
          "internalType": "address",
          "name": "_contractAddress",
          "type": "address"
        }
      ],
      "name": "registerMaintenance",
      "outputs": [],
      "stateMutability": "nonpayable",
      "type": "function"
    }
  ],
  "bytecode": "0x608060405234801561001057600080fd5b506120f2806100206000396000f3fe608060405234801561001057600080fd5b50600436106100f55760003560e01c8063682563c3116100975780639a654c34116100665780639a654c341461026c578063a00fd3c814610288578063f4f4d237146102a4578063fa5f9559146102d5576100f5565b8063682563c3146101fa5780637681365e14610216578063775a25e31461023257806385fa82c214610250576100f5565b80633b8d33f2116100d35780633b8d33f2146101765780634189a68e146101a65780635a67fff1146101c2578063601219b7146101de576100f5565b806322be8da1146100fa578063368189421461012a578063379c513114610146575b600080fd5b610114600480360381019061010f91906115fc565b610305565b6040516101219190611d5e565b60405180910390f35b610144600480360381019061013f9190611809565b61039c565b005b610160600480360381019061015b91906115fc565b610505565b60405161016d9190611d5e565b60405180910390f35b610190600480360381019061018b9190611691565b61059c565b60405161019d9190611d5e565b60405180910390f35b6101c060048036038101906101bb91906116ba565b610607565b005b6101dc60048036038101906101d79190611625565b61084c565b005b6101f860048036038101906101f3919061179d565b610925565b005b610214600480360381019061020f9190611625565b610b0b565b005b610230600480360381019061022b9190611691565b610be4565b005b61023a610d19565b6040516102479190611e77565b60405180910390f35b61026a600480360381019061026591906116f6565b610d23565b005b61028660048036038101906102819190611625565b610e46565b005b6102a2600480360381019061029d9190611745565b610f1f565b005b6102be60048036038101906102b99190611691565b610fa9565b6040516102cc929190611e40565b60405180910390f35b6102ef60048036038101906102ea9190611691565b611393565b6040516102fc9190611d3c565b60405180910390f35b6060600360008373ffffffffffffffffffffffffffffffffffffffff1673ffffffffffffffffffffffffffffffffffffffff16815260200190815260200160002080548060200260200160405190810160405280929190818152602001828054801561039057602002820191906000526020600020905b81548152602001906001019080831161037c575b50505050509050919050565b883373ffffffffffffffffffffffffffffffffffffffff166004600083815260200190815260200160002060060160009054906101000a900473ffffffffffffffffffffffffffffffffffffffff1673ffffffffffffffffffffffffffffffffffffffff1614610441576040517f08c379a000000000000000000000000000000000000000000000000000000000815260040161043890611e00565b60405180910390fd5b88600460008c81526020019081526020016000206000018190555087600460008c8152602001908152602001600020600101819055508686600460008d8152602001908152602001600020600201919061049c929190611434565b508484600460008d815260200190815260200160002060030191906104c2929190611434565b5082600460008c81526020019081526020016000206004018190555081600460008c81526020019081526020016000206005018190555050505050505050505050565b6060600260008373ffffffffffffffffffffffffffffffffffffffff1673ffffffffffffffffffffffffffffffffffffffff16815260200190815260200160002080548060200260200160405190810160405280929190818152602001828054801561059057602002820191906000526020600020905b81548152602001906001019080831161057c575b50505050509050919050565b6060600160008381526020019081526020016000208054806020026020016040519081016040528092919081815260200182805480156105fb57602002820191906000526020600020905b8154815260200190600101908083116105e7575b50505050509050919050565b813373ffffffffffffffffffffffffffffffffffffffff166004600083815260200190815260200160002060060160009054906101000a900473ffffffffffffffffffffffffffffffffffffffff1673ffffffffffffffffffffffffffffffffffffffff1614806106d957503373ffffffffffffffffffffffffffffffffffffffff166004600083815260200190815260200160002060070160009054906101000a900473ffffffffffffffffffffffffffffffffffffffff1673ffffffffffffffffffffffffffffffffffffffff16145b610718576040517f08c379a000000000000000000000000000000000000000000000000000000000815260040161070f90611de0565b60405180910390fd5b816004600085815260200190815260200160002060070160006101000a81548173ffffffffffffffffffffffffffffffffffffffff021916908373ffffffffffffffffffffffffffffffffffffffff160217905550600360008373ffffffffffffffffffffffffffffffffffffffff1673ffffffffffffffffffffffffffffffffffffffff16815260200190815260200160002083908060018154018082558091505060019003906000526020600020016000909190919091505560056000848152602001908152602001600020829080600181540180825580915050600190039060005260206000200160009091909190916101000a81548173ffffffffffffffffffffffffffffffffffffffff021916908373ffffffffffffffffffffffffffffffffffffffff160217905550505050565b60008083815260200190815260200160002060040160009054906101000a900460ff166108ae576040517f08c379a00000000000000000000000000000000000000000000000000000000081526004016108a590611e20565b60405180910390fd5b8073ffffffffffffffffffffffffffffffffffffffff16635dc1aad3858585336040518563ffffffff1660e01b81526004016108ed9493929190611d80565b600060405180830381600087803b15801561090757600080fd5b505af115801561091b573d6000803e3d6000fd5b5050505050505050565b6001600085815260200190815260200160002060065490806001815401808255809150506001900390600052602060002001600090919091909150558060046000600654815260200190815260200160002060060160006101000a81548173ffffffffffffffffffffffffffffffffffffffff021916908373ffffffffffffffffffffffffffffffffffffffff160217905550600260008273ffffffffffffffffffffffffffffffffffffffff1673ffffffffffffffffffffffffffffffffffffffff1681526020019081526020016000206006549080600181540180825580915050600190039060005260206000200160009091909190915055600560006006548152602001908152602001600020819080600181540180825580915050600190039060005260206000200160009091909190916101000a81548173ffffffffffffffffffffffffffffffffffffffff021916908373ffffffffffffffffffffffffffffffffffffffff1602179055503073ffffffffffffffffffffffffffffffffffffffff1663a00fd3c88585856040518463ffffffff1660e01b8152600401610ad393929190611e92565b600060405180830381600087803b158015610aed57600080fd5b505af1158015610b01573d6000803e3d6000fd5b5050505050505050565b60008083815260200190815260200160002060040160009054906101000a900460ff16610b6d576040517f08c379a0000000000000000000000000000000000000000000000000000000008152600401610b6490611e20565b60405180910390fd5b8073ffffffffffffffffffffffffffffffffffffffff16635dc1aad3858585336040518563ffffffff1660e01b8152600401610bac9493929190611d80565b600060405180830381600087803b158015610bc657600080fd5b505af1158015610bda573d6000803e3d6000fd5b5050505050505050565b60008082815260200190815260200160002060040160009054906101000a900460ff16610c46576040517f08c379a0000000000000000000000000000000000000000000000000000000008152600401610c3d90611e20565b60405180910390fd5b600060046000838152602001908152602001600020600101541480610c805750600460008281526020019081526020016000206001015442105b15610cc0576040517f08c379a0000000000000000000000000000000000000000000000000000000008152600401610cb790611dc0565b60405180910390fd5b60006004600083815260200190815260200160002060070160006101000a81548173ffffffffffffffffffffffffffffffffffffffff021916908373ffffffffffffffffffffffffffffffffffffffff16021790555050565b6000600654905090565b823373ffffffffffffffffffffffffffffffffffffffff166004600083815260200190815260200160002060060160009054906101000a900473ffffffffffffffffffffffffffffffffffffffff1673ffffffffffffffffffffffffffffffffffffffff1614610dc8576040517f08c379a0000000000000000000000000000000000000000000000000000000008152600401610dbf90611e00565b60405180910390fd5b60008085815260200190815260200160002060020183908060018154018082558091505060019003906000526020600020016000909190919091505560008085815260200190815260200160002060030182908060018154018082558091505060019003906000526020600020016000909190919091505550505050565b60008083815260200190815260200160002060040160009054906101000a900460ff16610ea8576040517f08c379a0000000000000000000000000000000000000000000000000000000008152600401610e9f90611e20565b60405180910390fd5b8073ffffffffffffffffffffffffffffffffffffffff16635dc1aad3858585336040518563ffffffff1660e01b8152600401610ee79493929190611d80565b600060405180830381600087803b158015610f0157600080fd5b505af1158015610f15573d6000803e3d6000fd5b5050505050505050565b818160008060065481526020019081526020016000206001019190610f45929190611434565b50826000806006548152602001908152602001600020600001819055506001600080600654815260200190815260200160002060040160006101000a81548160ff021916908315150217905550600660008154809291906001019190505550505050565b610fb16114b4565b610fb96114e5565b60008084815260200190815260200160002060046000858152602001908152602001600020816040518060a001604052908160008201548152602001600182018054600181600116156101000203166002900480601f01602080910402602001604051908101604052809291908181526020018280546001816001161561010002031660029004801561108d5780601f106110625761010080835404028352916020019161108d565b820191906000526020600020905b81548152906001019060200180831161107057829003601f168201915b50505050508152602001600282018054806020026020016040519081016040528092919081815260200182805480156110e557602002820191906000526020600020905b8154815260200190600101908083116110d1575b505050505081526020016003820180548060200260200160405190810160405280929190818152602001828054801561113d57602002820191906000526020600020905b815481526020019060010190808311611129575b505050505081526020016004820160009054906101000a900460ff161515151581525050915080604051806101000160405290816000820154815260200160018201548152602001600282018054600181600116156101000203166002900480601f01602080910402602001604051908101604052809291908181526020018280546001816001161561010002031660029004801561121d5780601f106111f25761010080835404028352916020019161121d565b820191906000526020600020905b81548152906001019060200180831161120057829003601f168201915b50505050508152602001600382018054600181600116156101000203166002900480601f0160208091040260200160405190810160405280929190818152602001828054600181600116156101000203166002900480156112bf5780601f10611294576101008083540402835291602001916112bf565b820191906000526020600020905b8154815290600101906020018083116112a257829003601f168201915b5050505050815260200160048201548152602001600582015481526020016006820160009054906101000a900473ffffffffffffffffffffffffffffffffffffffff1673ffffffffffffffffffffffffffffffffffffffff1673ffffffffffffffffffffffffffffffffffffffff1681526020016007820160009054906101000a900473ffffffffffffffffffffffffffffffffffffffff1673ffffffffffffffffffffffffffffffffffffffff1673ffffffffffffffffffffffffffffffffffffffff1681525050905091509150915091565b60606005600083815260200190815260200160002080548060200260200160405190810160405280929190818152602001828054801561142857602002820191906000526020600020905b8160009054906101000a900473ffffffffffffffffffffffffffffffffffffffff1673ffffffffffffffffffffffffffffffffffffffff16815260200190600101908083116113de575b50505050509050919050565b828054600181600116156101000203166002900490600052602060002090601f016020900481019282601f1061147557803560ff19168380011785556114a3565b828001600101855582156114a3579182015b828111156114a2578235825591602001919060010190611487565b5b5090506114b09190611556565b5090565b6040518060a00160405280600081526020016060815260200160608152602001606081526020016000151581525090565b604051806101000160405280600081526020016000815260200160608152602001606081526020016000815260200160008152602001600073ffffffffffffffffffffffffffffffffffffffff168152602001600073ffffffffffffffffffffffffffffffffffffffff1681525090565b5b8082111561156f576000816000905550600101611557565b5090565b60008135905061158281612077565b92915050565b6000813590506115978161208e565b92915050565b60008083601f8401126115af57600080fd5b8235905067ffffffffffffffff8111156115c857600080fd5b6020830191508360018202830111156115e057600080fd5b9250929050565b6000813590506115f6816120a5565b92915050565b60006020828403121561160e57600080fd5b600061161c84828501611573565b91505092915050565b6000806000806060858703121561163b57600080fd5b600085013567ffffffffffffffff81111561165557600080fd5b6116618782880161159d565b94509450506020611674878288016115e7565b925050604061168587828801611573565b91505092959194509250565b6000602082840312156116a357600080fd5b60006116b1848285016115e7565b91505092915050565b600080604083850312156116cd57600080fd5b60006116db858286016115e7565b92505060206116ec85828601611573565b9150509250929050565b60008060006060848603121561170b57600080fd5b6000611719868287016115e7565b935050602061172a86828701611588565b925050604061173b86828701611588565b9150509250925092565b60008060006040848603121561175a57600080fd5b6000611768868287016115e7565b935050602084013567ffffffffffffffff81111561178557600080fd5b6117918682870161159d565b92509250509250925092565b600080600080606085870312156117b357600080fd5b60006117c1878288016115e7565b945050602085013567ffffffffffffffff8111156117de57600080fd5b6117ea8782880161159d565b935093505060406117fd87828801611573565b91505092959194509250565b600080600080600080600080600060e08a8c03121561182757600080fd5b60006118358c828d016115e7565b99505060206118468c828d016115e7565b98505060406118578c828d016115e7565b97505060608a013567ffffffffffffffff81111561187457600080fd5b6118808c828d0161159d565b965096505060808a013567ffffffffffffffff81111561189f57600080fd5b6118ab8c828d0161159d565b945094505060a06118be8c828d016115e7565b92505060c06118cf8c828d016115e7565b9150509295985092959850929598565b60006118eb8383611936565b60208301905092915050565b60006119038383611a6e565b60208301905092915050565b600061191b8383611d1e565b60208301905092915050565b61193081611fee565b82525050565b61193f81611f9c565b82525050565b600061195082611ef4565b61195a8185611f47565b935061196583611ec4565b8060005b8381101561199657815161197d88826118df565b975061198883611f20565b925050600181019050611969565b5085935050505092915050565b60006119ae82611eff565b6119b88185611f58565b93506119c383611ed4565b8060005b838110156119f45781516119db88826118f7565b97506119e683611f2d565b9250506001810190506119c7565b5085935050505092915050565b6000611a0c82611f0a565b611a168185611f69565b9350611a2183611ee4565b8060005b83811015611a52578151611a39888261190f565b9750611a4483611f3a565b925050600181019050611a25565b5085935050505092915050565b611a6881611fae565b82525050565b611a7781611fba565b82525050565b6000611a898385611f8b565b9350611a96838584612024565b611a9f83612066565b840190509392505050565b6000611ab582611f15565b611abf8185611f7a565b9350611acf818560208601612033565b611ad881612066565b840191505092915050565b6000611af0601f83611f8b565b91507f4f776e65736869702065787069726174696f6e206e6f7420616c6c6f776564006000830152602082019050919050565b6000611b30601f83611f8b565b91507f4f6e6c79206f776e6572206f722062757965722061726520616c6c6f776564006000830152602082019050919050565b6000611b70601583611f8b565b91507f4f6e6c79206f776e657220697320616c6c6f77656400000000000000000000006000830152602082019050919050565b6000611bb0601683611f8b565b91507f456c656d656e7420646f6573206e6f74206578697374000000000000000000006000830152602082019050919050565b600060a083016000830151611bfb6000860182611d1e565b5060208301518482036020860152611c138282611aaa565b91505060408301518482036040860152611c2d82826119a3565b91505060608301518482036060860152611c4782826119a3565b9150506080830151611c5c6080860182611a5f565b508091505092915050565b600061010083016000830151611c806000860182611d1e565b506020830151611c936020860182611d1e565b5060408301518482036040860152611cab8282611aaa565b91505060608301518482036060860152611cc58282611aaa565b9150506080830151611cda6080860182611d1e565b5060a0830151611ced60a0860182611d1e565b5060c0830151611d0060c0860182611936565b5060e0830151611d1360e0860182611936565b508091505092915050565b611d2781611fe4565b82525050565b611d3681611fe4565b82525050565b60006020820190508181036000830152611d568184611945565b905092915050565b60006020820190508181036000830152611d788184611a01565b905092915050565b60006060820190508181036000830152611d9b818688611a7d565b9050611daa6020830185611d2d565b611db76040830184611927565b95945050505050565b60006020820190508181036000830152611dd981611ae3565b9050919050565b60006020820190508181036000830152611df981611b23565b9050919050565b60006020820190508181036000830152611e1981611b63565b9050919050565b60006020820190508181036000830152611e3981611ba3565b9050919050565b60006040820190508181036000830152611e5a8185611be3565b90508181036020830152611e6e8184611c67565b90509392505050565b6000602082019050611e8c6000830184611d2d565b92915050565b6000604082019050611ea76000830186611d2d565b8181036020830152611eba818486611a7d565b9050949350505050565b6000819050602082019050919050565b6000819050602082019050919050565b6000819050602082019050919050565b600081519050919050565b600081519050919050565b600081519050919050565b600081519050919050565b6000602082019050919050565b6000602082019050919050565b6000602082019050919050565b600082825260208201905092915050565b600082825260208201905092915050565b600082825260208201905092915050565b600082825260208201905092915050565b600082825260208201905092915050565b6000611fa782611fc4565b9050919050565b60008115159050919050565b6000819050919050565b600073ffffffffffffffffffffffffffffffffffffffff82169050919050565b6000819050919050565b6000611ff982612000565b9050919050565b600061200b82612012565b9050919050565b600061201d82611fc4565b9050919050565b82818337600083830152505050565b60005b83811015612051578082015181840152602081019050612036565b83811115612060576000848401525b50505050565b6000601f19601f8301169050919050565b61208081611f9c565b811461208b57600080fd5b50565b61209781611fba565b81146120a257600080fd5b50565b6120ae81611fe4565b81146120b957600080fd5b5056fea2646970667358221220a8a534b82dbede160f858b49ae1504fe06cfcd35bdc885c6163f85ffa237dca364736f6c634300060c0033",
  "immutableReferences": {},
  "source": "// SPDX-License-Identifier: MIT\n\npragma solidity ^0.6.0;\npragma experimental ABIEncoderV2;\n\n//import '../../OpenZeppelin/openzeppelin-contracts/contracts/math/SafeMath.sol';\nimport '@openzeppelin/contracts/math/SafeMath.sol';\n\nimport './Product.sol';\nimport './Maintenance.sol';\nimport './ProductionActivity.sol';\n\n/// @title Contract representing a portion of land\ncontract Portion {\n    using SafeMath for uint256;\n    \n    /// @dev Portion data\n    struct Data {\n        uint256 land;\n        string description;\n        bytes32[] documents;\n        bytes32[] hashes;\n        bool hasValue;\n    }\n    \n    /// @notice Duration parameter can be perpetual (0) or for n years\n    struct TermsOfSale {\n        uint256 price;\n        uint256 duration;\n        string expectedProduction;\n        string periodicity;\n        uint256 expectedMaintenanceCost;\n        uint256 expectedProdActivityCost;\n        address owner;\n        address buyer;\n    }\n    \n    /// @dev All the portions\n    mapping (uint256 => Data) private portions;\n    /// @dev Portions grouped by land\n    mapping (uint256 => uint256[]) private portionsByLand;\n    /// @dev Portions grouped by owner's address\n    mapping (address => uint256[]) private portionsByOwner;\n    /// @dev Portions grouped by buyer's address\n    mapping (address => uint256[]) private portionsByBuyer;\n    /// @dev All the portion terms\n    mapping (uint256 => TermsOfSale) private portionTerms;\n    /// @dev Buyers grouped by portion\n    mapping (uint256 => address[]) buyersByPortions;\n    \n    /// @dev Portion counter\n    uint256 private lastPortionId;\n    \n    /// @dev Portion terms can be defined only by the portion owner\n    modifier onlyOwner(uint256 _portionId) {\n        require(portionTerms[_portionId].owner == msg.sender, 'Only owner is allowed');\n        _;\n    }\n    \n    /// @dev Selling or transferring ownership can be performed only by owner or buyer\n    modifier onlyOwnerAndBuyer(uint256 _portionId) {\n        require(portionTerms[_portionId].owner == msg.sender || portionTerms[_portionId].buyer == msg.sender, 'Only owner or buyer are allowed');\n        _;\n    }\n    \n    /// @param _landId Land to be divided\n    /// @param _description Portion description\n    function register(uint256 _landId, string calldata _description) external {\n        portions[lastPortionId].description = _description;\n        portions[lastPortionId].land = _landId;\n        \n        portions[lastPortionId].hasValue = true;\n        \n        lastPortionId++;\n    }\n\n    /// @param _landId Land to be divided\n    /// @param _description Portion description\n    /// @param _source Original sender from divide land\n    function register(uint256 _landId, string calldata _description, address _source) external {\n        portionsByLand[_landId].push(lastPortionId);\n        portionTerms[lastPortionId].owner = _source;\n        portionsByOwner[_source].push(lastPortionId);        \n        buyersByPortions[lastPortionId].push(_source);\n\n        this.register(_landId, _description);\n    }\n\n    /// @param _id Portion ID\n    /// @param _document Document name\n    /// @param _base64 Base64 document\n    function registerDocument(uint256 _id, bytes32 _document, bytes32 _base64) external onlyOwner(_id) {\n        portions[_id].documents.push(_document);\n        portions[_id].hashes.push(_base64);\n    }\n    \n    /// @param _portionId ID of portion related\n    /// @param _price Contract price\n    /// @param _duration Contract duration\n    /// @param _expectedProduction Production expected from the portion\n    /// @param _periodicity Production periodicity\n    /// @param _expectedMaintenanceCost Costs expected for maintenance\n    /// @param _expectedProdActivityCost Costs expected for production-related activities \n    function defineTerms(\n        uint256 _portionId,\n        uint256 _price,\n        uint256 _duration,\n        string calldata _expectedProduction,\n        string calldata _periodicity,\n        uint256 _expectedMaintenanceCost,\n        uint256 _expectedProdActivityCost\n    ) external onlyOwner(_portionId) {\n        portionTerms[_portionId].price = _price;\n        portionTerms[_portionId].duration = _duration;\n        portionTerms[_portionId].expectedProduction = _expectedProduction;\n        portionTerms[_portionId].periodicity = _periodicity;\n        portionTerms[_portionId].expectedMaintenanceCost = _expectedMaintenanceCost;\n        portionTerms[_portionId].expectedProdActivityCost = _expectedProdActivityCost;\n    }\n    \n    /// @notice Sell and transfer ownership\n    /// @param _id Portion ID\n    /// @param _buyer New buyer\n    function sell(uint256 _id, address _buyer) external onlyOwnerAndBuyer(_id) {\n        portionTerms[_id].buyer = _buyer;\n        portionsByBuyer[_buyer].push(_id);\n        \n        buyersByPortions[_id].push(_buyer);\n    }\n    \n    /// @param _id Portion ID\n    function ownershipExpiration(uint256 _id) external {\n        if (!portions[_id].hasValue) revert('Element does not exist');\n        if (portionTerms[_id].duration == 0 || now < portionTerms[_id].duration) revert('Owneship expiration not allowed');\n        portionTerms[_id].buyer = address(0);\n    }\n    \n    /// @param _id Portion ID\n    /// return the tuple containing the data related to the portion and its terms of sale\n    function getById(uint256 _id) external view returns (Data memory, TermsOfSale memory) {\n        return (portions[_id], portionTerms[_id]);\n    }\n\n    /// @param _land Land ID\n    /// return the array containing all the portions in a land\n    function getByLand(uint256 _land) external view returns (uint256[] memory) {\n        return (portionsByLand[_land]);\n    }\n    \n    /// @param _owner Owner address\n    /// @return the array containing all the portions owned\n    function getByOwner(address _owner) external view returns (uint256[] memory) {\n        return portionsByOwner[_owner];\n    }\n\n    /// @param _buyer Buyer address\n    /// @return the array containing all the portions bought\n    function getByBuyer(address _buyer) external view returns (uint256[] memory) {\n        return portionsByBuyer[_buyer];\n    }\n    \n    /// @param _id Portion ID\n    /// @return the array containing all the buyers for that portion\n    function getBuyersByPortion(uint256 _id) external view returns (address[] memory) {\n        return buyersByPortions[_id];\n    }\n    \n    /// @return the number of registered portions\n    function getTotal() external view returns (uint256) {\n        return lastPortionId;\n    }\n    \n    /// @param _description Product description\n    /// @param _id Portion ID for registering the product\n    /// @param _contractAddress Product contract address\n    function registerProduct(string calldata _description, uint256 _id, address _contractAddress) external {\n        if (!portions[_id].hasValue) revert('Element does not exist');\n        Product(_contractAddress).register(_description, _id, msg.sender);\n    }\n    \n    /// @param _description Production description\n    /// @param _id Portion ID for registering the production\n    /// @param _contractAddress Production contract address\n    function registerProductionActivity(string calldata _description, uint256 _id, address _contractAddress) external {\n        if (!portions[_id].hasValue) revert('Element does not exist');\n        ProductionActivity(_contractAddress).register(_description, _id, msg.sender);\n    }\n    \n    /// @param _description Maintenance description\n    /// @param _id Portion ID for registering the maintenance\n    /// @param _contractAddress Maintenance contract address\n    function registerMaintenance(string calldata _description, uint256 _id, address _contractAddress) external {\n        if (!portions[_id].hasValue) revert('Element does not exist');\n        Maintenance(_contractAddress).register(_description, _id, msg.sender);\n    }\n    \n}\n",
  "sourcePath": "/home/francetti/WebstormProjects/PSAB-Contracts/contracts/Portion.sol",
  "compiler": {
    "name": "solc",
    "version": "0.6.12+commit.27d51765.Emscripten.clang"
  },
  "schemaVersion": "3.3.0",
  "updatedAt": "2020-10-19T09:42:53.958Z",
  "devdoc": {
    "kind": "dev",
    "methods": {
      "defineTerms(uint256,uint256,uint256,string,string,uint256,uint256)": {
        "params": {
          "_duration": "Contract duration",
          "_expectedMaintenanceCost": "Costs expected for maintenance",
          "_expectedProdActivityCost": "Costs expected for production-related activities ",
          "_expectedProduction": "Production expected from the portion",
          "_periodicity": "Production periodicity",
          "_portionId": "ID of portion related",
          "_price": "Contract price"
        }
      },
      "getBuyersByPortion(uint256)": {
        "params": {
          "_id": "Portion ID"
        },
        "returns": {
          "_0": "the array containing all the buyers for that portion"
        }
      },
      "getByBuyer(address)": {
        "params": {
          "_buyer": "Buyer address"
        },
        "returns": {
          "_0": "the array containing all the portions bought"
        }
      },
      "getById(uint256)": {
        "params": {
          "_id": "Portion ID return the tuple containing the data related to the portion and its terms of sale"
        }
      },
      "getByLand(uint256)": {
        "params": {
          "_land": "Land ID return the array containing all the portions in a land"
        }
      },
      "getByOwner(address)": {
        "params": {
          "_owner": "Owner address"
        },
        "returns": {
          "_0": "the array containing all the portions owned"
        }
      },
      "getTotal()": {
        "returns": {
          "_0": "the number of registered portions"
        }
      },
      "ownershipExpiration(uint256)": {
        "params": {
          "_id": "Portion ID"
        }
      },
      "register(uint256,string)": {
        "params": {
          "_description": "Portion description",
          "_landId": "Land to be divided"
        }
      },
      "register(uint256,string,address)": {
        "params": {
          "_description": "Portion description",
          "_landId": "Land to be divided",
          "_source": "Original sender from divide land"
        }
      },
      "registerDocument(uint256,bytes32,bytes32)": {
        "params": {
          "_base64": "Base64 document",
          "_document": "Document name",
          "_id": "Portion ID"
        }
      },
      "registerMaintenance(string,uint256,address)": {
        "params": {
          "_contractAddress": "Maintenance contract address",
          "_description": "Maintenance description",
          "_id": "Portion ID for registering the maintenance"
        }
      },
      "registerProduct(string,uint256,address)": {
        "params": {
          "_contractAddress": "Product contract address",
          "_description": "Product description",
          "_id": "Portion ID for registering the product"
        }
      },
      "registerProductionActivity(string,uint256,address)": {
        "params": {
          "_contractAddress": "Production contract address",
          "_description": "Production description",
          "_id": "Portion ID for registering the production"
        }
      },
      "sell(uint256,address)": {
        "params": {
          "_buyer": "New buyer",
          "_id": "Portion ID"
        }
      }
    },
    "stateVariables": {
      "buyersByPortions": {
        "details": "Buyers grouped by portion"
      },
      "lastPortionId": {
        "details": "Portion counter"
      },
      "portionTerms": {
        "details": "All the portion terms"
      },
      "portions": {
        "details": "All the portions"
      },
      "portionsByBuyer": {
        "details": "Portions grouped by buyer's address"
      },
      "portionsByLand": {
        "details": "Portions grouped by land"
      },
      "portionsByOwner": {
        "details": "Portions grouped by owner's address"
      }
    },
    "title": "Contract representing a portion of land",
    "version": 1
  },
  "userdoc": {
    "kind": "user",
    "methods": {
      "sell(uint256,address)": {
        "notice": "Sell and transfer ownership"
      }
    },
    "version": 1
  }
}